{
  "contractName": "HealthcareDemo",
  "abi": [
    {
      "inputs": [],
      "stateMutability": "nonpayable",
      "type": "constructor"
    },
    {
      "anonymous": false,
      "inputs": [
        {
          "indexed": false,
          "internalType": "string",
          "name": "coverage",
          "type": "string"
        }
      ],
      "name": "LogCoverage",
      "type": "event"
    },
    {
      "anonymous": false,
      "inputs": [
        {
          "indexed": false,
          "internalType": "string",
          "name": "degree",
          "type": "string"
        }
      ],
      "name": "LogDegree",
      "type": "event"
    },
    {
      "anonymous": false,
      "inputs": [
        {
          "indexed": false,
          "internalType": "string",
          "name": "employer",
          "type": "string"
        }
      ],
      "name": "LogEmployer",
      "type": "event"
    },
    {
      "inputs": [
        {
          "internalType": "address",
          "name": "",
          "type": "address"
        }
      ],
      "name": "roles",
      "outputs": [
        {
          "internalType": "uint256",
          "name": "",
          "type": "uint256"
        }
      ],
      "stateMutability": "view",
      "type": "function",
      "constant": true
    },
    {
      "inputs": [],
      "name": "stopContractActivity",
      "outputs": [],
      "stateMutability": "nonpayable",
      "type": "function"
    },
    {
      "inputs": [
        {
          "internalType": "string",
          "name": "degree",
          "type": "string"
        }
      ],
      "name": "updateUserDegree",
      "outputs": [],
      "stateMutability": "nonpayable",
      "type": "function"
    },
    {
      "inputs": [
        {
          "internalType": "string",
          "name": "employer",
          "type": "string"
        }
      ],
      "name": "updateUserEmployer",
      "outputs": [],
      "stateMutability": "nonpayable",
      "type": "function"
    },
    {
      "inputs": [
        {
          "internalType": "string",
          "name": "provider",
          "type": "string"
        }
      ],
      "name": "updateUserHealthcareProvider",
      "outputs": [],
      "stateMutability": "nonpayable",
      "type": "function"
    },
    {
      "inputs": [],
      "name": "returnUserStatus",
      "outputs": [
        {
          "internalType": "uint256",
          "name": "",
          "type": "uint256"
        }
      ],
      "stateMutability": "view",
      "type": "function",
      "constant": true
    },
    {
      "inputs": [],
      "name": "returnUserDegree",
      "outputs": [
        {
          "internalType": "string",
          "name": "",
          "type": "string"
        }
      ],
      "stateMutability": "view",
      "type": "function",
      "constant": true
    },
    {
      "inputs": [],
      "name": "returnUserEmployer",
      "outputs": [
        {
          "internalType": "string",
          "name": "",
          "type": "string"
        }
      ],
      "stateMutability": "view",
      "type": "function",
      "constant": true
    },
    {
      "inputs": [],
      "name": "returnUserHealthcareProvider",
      "outputs": [
        {
          "internalType": "string",
          "name": "",
          "type": "string"
        }
      ],
      "stateMutability": "view",
      "type": "function",
      "constant": true
    },
    {
      "inputs": [
        {
          "internalType": "address",
          "name": "college",
          "type": "address"
        }
      ],
      "name": "makeCollege",
      "outputs": [],
      "stateMutability": "nonpayable",
      "type": "function"
    },
    {
      "inputs": [
        {
          "internalType": "address",
          "name": "employer",
          "type": "address"
        }
      ],
      "name": "makeEmployer",
      "outputs": [],
      "stateMutability": "nonpayable",
      "type": "function"
    },
    {
      "inputs": [
        {
          "internalType": "address",
          "name": "provider",
          "type": "address"
        }
      ],
      "name": "MakeHealthcareProvider",
      "outputs": [],
      "stateMutability": "nonpayable",
      "type": "function"
    },
    {
      "inputs": [
        {
          "internalType": "address",
          "name": "adminInQuestion",
          "type": "address"
        }
      ],
      "name": "checkRole",
      "outputs": [
        {
          "internalType": "uint256",
          "name": "",
          "type": "uint256"
        }
      ],
      "stateMutability": "view",
      "type": "function",
      "constant": true
    }
  ],
  "bytecode": "0x6080604052336000806101000a81548173ffffffffffffffffffffffffffffffffffffffff021916908373ffffffffffffffffffffffffffffffffffffffff16021790555060008060146101000a81548160ff0219169083151502179055503480156200006b57600080fd5b50336000806101000a81548173ffffffffffffffffffffffffffffffffffffffff021916908373ffffffffffffffffffffffffffffffffffffffff1602179055506040518060a00160405280600081526020016040518060200160405280600081525081526020016040518060200160405280600081525081526020016040518060200160405280600081525081526020013373ffffffffffffffffffffffffffffffffffffffff16815250600260008201518160000155602082015181600101908051906020019062000141929190620001d0565b50604082015181600201908051906020019062000160929190620001d0565b5060608201518160030190805190602001906200017f929190620001d0565b5060808201518160040160006101000a81548173ffffffffffffffffffffffffffffffffffffffff021916908373ffffffffffffffffffffffffffffffffffffffff1602179055509050506200027f565b828054600181600116156101000203166002900490600052602060002090601f016020900481019282601f106200021357805160ff191683800117855562000244565b8280016001018555821562000244579182015b828111156200024357825182559160200191906001019062000226565b5b50905062000253919062000257565b5090565b6200027c91905b80821115620002785760008160009055506001016200025e565b5090565b90565b610f63806200028f6000396000f3fe608060405234801561001057600080fd5b50600436106100cf5760003560e01c80638838a92c1161008c578063bc7c027511610066578063bc7c02751461046c578063c338e08a146104ef578063ca32cd3b14610533578063fdc13ce4146105ee576100cf565b80638838a92c1461033957806399374642146103bc578063a0d7823e14610414576100cf565b8063176b62f5146100d45780631c991bd11461011857806334cd952714610136578063476bf0d7146101b957806361498da514610274578063869243b91461027e575b600080fd5b610116600480360360208110156100ea57600080fd5b81019080803573ffffffffffffffffffffffffffffffffffffffff169060200190929190505050610632565b005b6101206106d3565b6040518082815260200191505060405180910390f35b61013e6106e0565b6040518080602001828103825283818151815260200191508051906020019080838360005b8381101561017e578082015181840152602081019050610163565b50505050905090810190601f1680156101ab5780820380516001836020036101000a031916815260200191505b509250505060405180910390f35b610272600480360360208110156101cf57600080fd5b81019080803590602001906401000000008111156101ec57600080fd5b8201836020820111156101fe57600080fd5b8035906020019184600183028401116401000000008311171561022057600080fd5b91908080601f016020809104026020016040519081016040528093929190818152602001838380828437600081840152601f19601f820116905080830192505050505050509192919290505050610785565b005b61027c6108fd565b005b6103376004803603602081101561029457600080fd5b81019080803590602001906401000000008111156102b157600080fd5b8201836020820111156102c357600080fd5b803590602001918460018302840111640100000000831117156102e557600080fd5b91908080601f016020809104026020016040519081016040528093929190818152602001838380828437600081840152601f19601f820116905080830192505050505050509192919290505050610982565b005b610341610a91565b6040518080602001828103825283818151815260200191508051906020019080838360005b83811015610381578082015181840152602081019050610366565b50505050905090810190601f1680156103ae5780820380516001836020036101000a031916815260200191505b509250505060405180910390f35b6103fe600480360360208110156103d257600080fd5b81019080803573ffffffffffffffffffffffffffffffffffffffff169060200190929190505050610b36565b6040518082815260200191505060405180910390f35b6104566004803603602081101561042a57600080fd5b81019080803573ffffffffffffffffffffffffffffffffffffffff169060200190929190505050610b4e565b6040518082815260200191505060405180910390f35b610474610b97565b6040518080602001828103825283818151815260200191508051906020019080838360005b838110156104b4578082015181840152602081019050610499565b50505050905090810190601f1680156104e15780820380516001836020036101000a031916815260200191505b509250505060405180910390f35b6105316004803603602081101561050557600080fd5b81019080803573ffffffffffffffffffffffffffffffffffffffff169060200190929190505050610c3b565b005b6105ec6004803603602081101561054957600080fd5b810190808035906020019064010000000081111561056657600080fd5b82018360208201111561057857600080fd5b8035906020019184600183028401116401000000008311171561059a57600080fd5b91908080601f016020809104026020016040519081016040528093929190818152602001838380828437600081840152601f19601f820116905080830192505050505050509192919290505050610cdb565b005b6106306004803603602081101561060457600080fd5b81019080803573ffffffffffffffffffffffffffffffffffffffff169060200190929190505050610de7565b005b6000809054906101000a900473ffffffffffffffffffffffffffffffffffffffff1673ffffffffffffffffffffffffffffffffffffffff163373ffffffffffffffffffffffffffffffffffffffff161461068b57600080fd5b6002600160008373ffffffffffffffffffffffffffffffffffffffff1673ffffffffffffffffffffffffffffffffffffffff1681526020019081526020016000208190555050565b6000600260000154905090565b606060026001018054600181600116156101000203166002900480601f01602080910402602001604051908101604052809291908181526020018280546001816001161561010002031660029004801561077b5780601f106107505761010080835404028352916020019161077b565b820191906000526020600020905b81548152906001019060200180831161075e57829003601f168201915b5050505050905090565b600060149054906101000a900460ff166108fa5760006107a433610b4e565b14610817576040517f08c379a00000000000000000000000000000000000000000000000000000000081526004018080602001828103825260168152602001807f596f7520617265206e6f74206120636f6c6c656765210000000000000000000081525060200191505060405180910390fd5b6001600260000181905550806002600101908051906020019061083b929190610e88565b507f6941fa795cc6852bf66561cef81750eaa5c5a766a2f1a90a04f2da2aa0c3f1f7600260010160405180806020018281038252838181546001816001161561010002031660029004815260200191508054600181600116156101000203166002900480156108eb5780601f106108c0576101008083540402835291602001916108eb565b820191906000526020600020905b8154815290600101906020018083116108ce57829003601f168201915b50509250505060405180910390a15b50565b6000809054906101000a900473ffffffffffffffffffffffffffffffffffffffff1673ffffffffffffffffffffffffffffffffffffffff163373ffffffffffffffffffffffffffffffffffffffff161461095657600080fd5b600060149054906101000a900460ff1615600060146101000a81548160ff021916908315150217905550565b600060149054906101000a900460ff16610a8e5760026109a133610b4e565b146109ab57600080fd5b600360026000018190555080600260030190805190602001906109cf929190610e88565b507f9e15e7e8da870a068941293f95328ef3604dfc171a30573a1fb999b74c38a56460026003016040518080602001828103825283818154600181600116156101000203166002900481526020019150805460018160011615610100020316600290048015610a7f5780601f10610a5457610100808354040283529160200191610a7f565b820191906000526020600020905b815481529060010190602001808311610a6257829003601f168201915b50509250505060405180910390a15b50565b606060026003018054600181600116156101000203166002900480601f016020809104026020016040519081016040528092919081815260200182805460018160011615610100020316600290048015610b2c5780601f10610b0157610100808354040283529160200191610b2c565b820191906000526020600020905b815481529060010190602001808311610b0f57829003601f168201915b5050505050905090565b60016020528060005260406000206000915090505481565b6000600160008373ffffffffffffffffffffffffffffffffffffffff1673ffffffffffffffffffffffffffffffffffffffff168152602001908152602001600020549050919050565b6060600280018054600181600116156101000203166002900480601f016020809104026020016040519081016040528092919081815260200182805460018160011615610100020316600290048015610c315780601f10610c0657610100808354040283529160200191610c31565b820191906000526020600020905b815481529060010190602001808311610c1457829003601f168201915b5050505050905090565b6000809054906101000a900473ffffffffffffffffffffffffffffffffffffffff1673ffffffffffffffffffffffffffffffffffffffff163373ffffffffffffffffffffffffffffffffffffffff1614610c9457600080fd5b60018060008373ffffffffffffffffffffffffffffffffffffffff1673ffffffffffffffffffffffffffffffffffffffff1681526020019081526020016000208190555050565b600060149054906101000a900460ff16610de4576001610cfa33610b4e565b14610d0457600080fd5b6002806000018190555080600280019080519060200190610d26929190610e88565b507fbee73237c95d71e9e04a2930902d6d6f8c4260b7224f3a89a81ecb60ba1245f5600280016040518080602001828103825283818154600181600116156101000203166002900481526020019150805460018160011615610100020316600290048015610dd55780601f10610daa57610100808354040283529160200191610dd5565b820191906000526020600020905b815481529060010190602001808311610db857829003601f168201915b50509250505060405180910390a15b50565b6000809054906101000a900473ffffffffffffffffffffffffffffffffffffffff1673ffffffffffffffffffffffffffffffffffffffff163373ffffffffffffffffffffffffffffffffffffffff1614610e4057600080fd5b6000600160008373ffffffffffffffffffffffffffffffffffffffff1673ffffffffffffffffffffffffffffffffffffffff1681526020019081526020016000208190555050565b828054600181600116156101000203166002900490600052602060002090601f016020900481019282601f10610ec957805160ff1916838001178555610ef7565b82800160010185558215610ef7579182015b82811115610ef6578251825591602001919060010190610edb565b5b509050610f049190610f08565b5090565b610f2a91905b80821115610f26576000816000905550600101610f0e565b5090565b9056fea2646970667358221220e58dc4cdfc58ad9cead1a3783f518c8a7ff4b4a27212f32ec2e8f55c966857e364736f6c63430006000033",
  "source": "pragma solidity >=0.6.0 <0.7.0;\n\ncontract HealthcareDemo {\n    /// @title A contract that creates different user roles for the Healthcare Demo application\n    /// @author Daniel Maguire\n    /// @notice You can use this contract for non-medical use cases as it is only a demo\n    /// @dev All function calls are currently implemented without side effects\n\n    address owner = msg.sender;\n    bool private stopped = false;\n\n    enum EnrollmentTypes { InShcool, Graduated, Employeed, Covered }\n\n    enum AdminTypes { College, Employer, Healthcare }\n\n    mapping (address => uint) public roles;\n\n    struct User {\n      uint currentstatus;\n      string degree;\n      string employer;\n      string healthcoverage;\n      address userAddress;\n    }\n\n    User user;\n\n    event LogDegree(string degree);\n    event LogEmployer(string employer);\n    event LogCoverage(string coverage);\n\n    modifier isOwner() {\n        require(msg.sender == owner);\n        _;\n    }\n\n    modifier isCollege {\n        require(checkRole(msg.sender) == 0, \"You are not a college!\");\n        _;\n    }\n\n    modifier isEmployer {\n        require(checkRole(msg.sender) == 1);\n        _;\n    }\n\n    modifier isHealthcareProvider {\n        require(checkRole(msg.sender) == 2);\n        _;\n    }\n\n    modifier stopInEmergency {\n        if (!stopped)\n        _;\n    }\n\n    constructor() public {\n    /* Here, set the owner as the person who instantiated the contract. */\n        owner = msg.sender;\n        user = User(0, \"\", \"\", \"\", msg.sender);\n    }\n\n    function stopContractActivity() isOwner public {\n        stopped = !stopped;\n    }\n\n    function updateUserDegree(string memory degree) public stopInEmergency isCollege() {\n        user.currentstatus = 1;\n        user.degree = degree;\n        emit LogDegree(user.degree);\n    }\n\n    function updateUserEmployer(string memory employer) public stopInEmergency isEmployer {\n        user.currentstatus = 2;\n        user.employer = employer;\n        emit LogEmployer(user.employer);\n    }\n\n    function updateUserHealthcareProvider(string memory provider) public stopInEmergency isHealthcareProvider {\n        user.currentstatus = 3;\n        user.healthcoverage = provider;\n        emit LogCoverage(user.healthcoverage);\n    }\n\n    function returnUserStatus() public view returns(uint) {\n        return user.currentstatus;\n    }\n\n    function returnUserDegree() public view returns(string memory) {\n        return user.degree;\n    }\n\n    function returnUserEmployer() public view returns(string memory) {\n        return user.employer;\n    }\n\n    function returnUserHealthcareProvider() public view returns(string memory) {\n        return user.healthcoverage;\n    }\n\n    function makeCollege(address college) public isOwner() {\n        roles[college] = 0;\n    }\n\n    function makeEmployer(address employer) public isOwner() {\n        roles[employer] = 1;\n    }\n\n    function MakeHealthcareProvider(address provider) public isOwner() {\n        roles[provider] = 2;\n    }\n\n    function checkRole(address adminInQuestion) public view returns(uint) {\n        return roles[adminInQuestion];\n    }\n\n}\n",
  "sourcePath": "/home/dan/finalProject/truffle/contracts/HealthcareDemo.sol",
  "compiler": {
    "name": "solc",
    "version": "0.6.0+commit.26b70077.Emscripten.clang"
  },
  "schemaVersion": "3.3.2",
  "updatedAt": "2020-12-01T11:19:08.157Z",
  "networkType": "ethereum",
  "devdoc": {
    "methods": {}
  },
  "userdoc": {
    "methods": {}
  }
}